:020000040000FA
:100000000C945D000C9485000C9485000C94850084
:100010000C9485000C9485000C9485000C9485004C
:100020000C9485000C9485000C9485000C9485003C
:100030000C9485000C9485000C9485000C9485002C
:100040000C94DB020C9485000C94A9020C9483029E
:100050000C9485000C9485000C9485000C9485000C
:100060000C9485000C9485000000000024002700FB
:100070002A0000000000250028002B0004040404CE
:100080000404040402020202020203030303030342
:10009000010204081020408001020408102001021F
:1000A00004081020000000080002010000030407FB
:1000B0000000000000000000270511241FBECFEF44
:1000C000D8E0DEBFCDBF11E0A0E0B1E0E2E8FFE0A4
:1000D00002C005900D92A232B107D9F721E0A2E249
:1000E000B1E001C01D92AC3CB207E1F710E0CDE5F4
:1000F000D0E004C02197FE010E94B907CC35D1079A
:10010000C9F70E9425030C94BF070C940000E7EA8E
:10011000F0E02491E3E9F0E09491EFE7F0E0E4917E
:10012000EE23C9F0222339F0233001F1A8F4213065
:1001300019F1223029F1F0E0EE0FFF1FEE58FF4FCA
:10014000A591B4912FB7F894EC91811126C09095A8
:100150009E239C932FBF08952730A9F02830C9F023
:10016000243049F7209180002F7D03C0209180002A
:100170002F7720938000DFCF24B52F7724BDDBCFEE
:1001800024B52F7DFBCF2091B0002F772093B000B6
:10019000D2CF2091B0002F7DF9CF9E2BDACFAF9236
:1001A000BF92CF92DF92EF92FF920F931F93CF9364
:1001B000DF936C017B018B01040F151FEB015E01C6
:1001C000AE18BF08C017D10759F06991D601ED915B
:1001D000FC910190F081E02DC6010995892B79F7FA
:1001E000C501DF91CF911F910F91FF90EF90DF90AC
:1001F000CF90BF90AF900895FC01538D448D252F73
:1002000030E0842F90E0821B930B541710F0CF96B0
:10021000089501970895FC01918D828D981761F0E2
:10022000A28DAE0FBF2FB11D5D968C91928D9F5FF9
:100230009F73928F90E008958FEF9FEF0895FC01D8
:10024000918D828D981731F0828DE80FF11D858D8B
:1002500090E008958FEF9FEF0895FC01918D228D1E
:10026000892F90E0805C9F4F821B91098F739927A3
:1002700008958FE291E00E942D0121E0892B09F47D
:1002800020E0822F089580E090E0892B29F00E94E1
:10029000390181110C9400000895FC01A48DA80F70
:1002A000B92FB11DA35ABF4F2C91848D90E00196B8
:1002B0008F739927848FA689B7892C93A089B189D8
:1002C0008C91837080648C93938D848D981306C079
:1002D0000288F389E02D80818F7D80830895EF92DD
:1002E000FF920F931F93CF93DF93EC0181E0888FF0
:1002F0009B8D8C8D98131AC0E889F989808185FFC0
:1003000015C09FB7F894EE89FF896083E889F98961
:1003100080818370806480839FBF81E090E0DF9163
:10032000CF911F910F91FF90EF900895F62E0B8DB6
:1003300010E00F5F1F4F0F731127E02E8C8D8E1171
:100340000CC00FB607FCFACFE889F989808185FFD8
:10035000F5CFCE010E944D01F1CFEB8DEC0FFD2FBB
:10036000F11DE35AFF4FF0829FB7F8940B8FEA8993
:10037000FB8980818062CFCFCF93DF93EC01888DA2
:100380008823B9F0AA89BB89E889F9898C9185FD10
:1003900003C0808186FD0DC00FB607FCF7CF8C919E
:1003A00085FFF2CF808185FFEDCFCE010E944D0108
:1003B000E9CFDF91CF910895CF93DF9390E0FC01D7
:1003C000E057FF4F249184589F4FFC01849188236C
:1003D000D1F090E0880F991FFC01E859FF4FA591DB
:1003E000B491FC01EE58FF4FC591D49161110EC03C
:1003F0009FB7F8948C91E22FE0958E238C932881FF
:10040000E223E8839FBFDF91CF9108958FB7F894DF
:10041000EC91E22BEC938FBFF6CF3FB7F89480912D
:10042000270190912801A0912901B0912A0126B5B8
:10043000A89B05C02F3F19F00196A11DB11D3FBF1C
:10044000BA2FA92F982F8827BC01CD01620F711DEB
:10045000811D911D42E0660F771F881F991F4A95E5
:10046000D1F70895FC0101900020E9F73197AF0121
:10047000481B590BBC018FE291E00C94CF008F9286
:100480009F92AF92BF920F931F93CF93DF93CDB7FD
:10049000DEB7A1970FB6F894DEBF0FBECDBF19A28D
:1004A000423008F44AE08E010F5D1F4F842E912CDC
:1004B000B12CA12CA50194010E949707E62FB90148
:1004C000CA01EA30F4F4E05DD801EE938D01232BEC
:1004D000242B252B79F790E080E0109719F0CD01BF
:1004E0000E943202A1960FB6F894DEBF0FBECDBFB8
:1004F000DF91CF911F910F91BF90AF909F908F9000
:100500000895E95CE1CF1F920F920FB60F9211246C
:100510002F933F934F935F936F937F938F939F930B
:10052000AF93BF93EF93FF938FE291E00E944D0151
:10053000FF91EF91BF91AF919F918F917F916F91BB
:100540005F914F913F912F910F900FBE0F901F9091
:1005500018951F920F920FB60F9211242F938F931D
:100560009F93EF93FF93E0913F01F09140018081D1
:10057000E0914501F091460182FD1BC09081809180
:1005800048018F5F8F7320914901821741F0E091FC
:100590004801F0E0E15DFE4F958F80934801FF91A7
:1005A000EF919F918F912F910F900FBE0F901F9001
:1005B00018958081F4CF1F920F920FB60F921124DD
:1005C0002F933F938F939F93AF93BF93809123017A
:1005D00090912401A0912501B09126013091220132
:1005E00023E0230F2D3758F50196A11DB11D20934F
:1005F00022018093230190932401A0932501B093BD
:1006000026018091270190912801A0912901B091A4
:100610002A010196A11DB11D809327019093280105
:10062000A0932901B0932A01BF91AF919F918F911F
:100630003F912F910F900FBE0F901F90189526E8B5
:10064000230F0296A11DB11DD2CF789484B582608C
:1006500084BD84B5816084BD85B5826085BD85B566
:10066000816085BD80916E00816080936E001092E4
:10067000810080918100826080938100809181005F
:1006800081608093810080918000816080938000F0
:100690008091B10084608093B1008091B00081604E
:1006A0008093B00080917A00846080937A0080917A
:1006B0007A00826080937A0080917A0081608093D2
:1006C0007A0080917A00806880937A001092C1004D
:1006D000E0913F01F091400182E08083E0913B0195
:1006E000F0913C011082E0913D01F0913E0180E1EA
:1006F000808310924701E0914301F091440186E02C
:100700008083E0914101F09142018081806180838A
:10071000E0914101F0914201808188608083E09105
:100720004101F0914201808180688083E091410124
:10073000F091420180818F7D808360E082E00E94A1
:10074000DC0161E084E00E94DC0161E083E00E9462
:10075000DC0160E08EE00E94DC0190E4392E07EAC3
:1007600010E0C0E0D0E030927C0080917A0080649C
:1007700080937A0080917A0086FDFCCF809178008A
:1007800060917900762F682F072E000C880B990B4B
:100790000E94700620E030E04FE254E40E945405CD
:1007A00020E030E841EA53E40E94C6059B01AC0119
:1007B00020932B0130932C0140932D0150932E0157
:1007C00060E070E080E89FE30E94540520E030E0A4
:1007D00048EC52E40E9425076B017C014B015C014F
:1007E000AC019B010E949207882309F454C082E166
:1007F00091E00E9432028EE191E00E94320220E0FC
:1008000030E041E653E460912B0170912C0180911E
:100810002D0190912E010E9425070E9438066B0140
:100820005B0161E083E00E94DC01C114D10409F0A6
:10083000C6C080E00E9487000E940D024B015C014F
:1008400082E3C82ED12CE12CF12C0E940D026819F4
:1008500079098A099B09683E734081059105A8F3CF
:1008600021E0C21AD108E108F10888EE880E83E081
:10087000981EA11CB11CC114D104E104F10429F794
:10088000209709F470CF0E943901882309F46BCFB7
:100890000E94000068CF26013701E89477F82FEF17
:1008A0003FEF4FE75FE7C301B2010E94920781115A
:1008B0000DC02FEF3FEF4FE75FE7C301B2010E948A
:1008C000C10518161CF486E191E093CF2FEF3FEF9E
:1008D0004FE75FE4C701B6010E94200718161CF419
:1008E0008AE191E086CF2FEF3FEF4FE75FECC70142
:1008F000B6010E94C10587FDF3CF20E030E0A901D9
:10090000C701B6010E94C10587FF0BC06DE28FE2EF
:1009100091E00E946F0146015701B7FAB094B7F811
:10092000B0942AE037ED43EA5BE3C501B4010E94CD
:1009300055054B015C010E943F066B017C010E9442
:100940006E069B01AC01C501B4010E9454054B0128
:100950005C014AE0C701B6010E943F026EE28FE2ED
:1009600091E00E946F0120E030E040E251E4C501D7
:10097000B4010E9425074B015C010E943F066B01F8
:10098000F12CE12C4AE0C701B6010E943F02C701E9
:10099000B6010E946E069B01AC01C501B4010E9424
:1009A000540520E030E040E251E40E9425070E9417
:1009B0003F0690E080E04AE00E943F021CCF2FEF0C
:1009C000C216D10411F481E035CFF801849183304F
:1009D00021F148F48130B9F08230D1F0F0E8AF165F
:1009E000B1048CF726CF873011F1883041F1843083
:1009F000A9F780918000806280938000D0928B0064
:100A0000C0928A0019CF84B5806884BDC7BC14CF5A
:100A100084B5806284BDC8BC0FCF8091800080689F
:100A200080938000D0928900C092880005CF809189
:100A3000B00080688093B000C092B300FDCE80917A
:100A4000B00080628093B000C092B400F5CEEFE2B7
:100A5000F1E01382128288EE93E0A0E0B0E084839C
:100A60009583A683B78384E091E09183808385ECAE
:100A700090E09587848784EC90E09787868780EC68
:100A800090E0918B808B81EC90E0938B828B82EC59
:100A900090E0958B848B86EC90E0978B868B118E03
:100AA000128E138E148E08955058BB27AA270E94C9
:100AB0006C050C94E6060E94D80638F00E94DF060A
:100AC00020F039F49F3F19F426F40C94D5060EF467
:100AD000E095E7FB0C94CF06E92F0E94F70658F348
:100AE000BA17620773078407950720F079F4A6F513
:100AF0000C9419070EF4E0950B2EBA2FA02D0B01C4
:100B0000B90190010C01CA01A0011124FF27591B52
:100B100099F0593F50F4503E68F11A16F040A22F58
:100B2000232F342F4427585FF3CF469537952795C9
:100B3000A795F0405395C9F77EF41F16BA0B620BC8
:100B4000730B840BBAF09150A1F0FF0FBB1F661F0F
:100B5000771F881FC2F70EC0BA0F621F731F841F52
:100B600048F4879577956795B795F7959E3F08F078
:100B7000B0CF9395880F08F09927EE0F979587953A
:100B800008950E94AB0608F481E008950E94DA05FA
:100B90000C94E6060E94DF0658F00E94D80640F04A
:100BA00029F45F3F29F00C94CF0651110C941A07D9
:100BB0000C94D5060E94F70668F39923B1F35523E8
:100BC00091F3951B550BBB27AA2762177307840760
:100BD00038F09F5F5F4F220F331F441FAA1FA9F3F6
:100BE00035D00E2E3AF0E0E832D091505040E695E4
:100BF000001CCAF72BD0FE2F29D0660F771F881F45
:100C0000BB1F261737074807AB07B0E809F0BB0B37
:100C1000802DBF01FF2793585F4F3AF09E3F51054B
:100C200078F00C94CF060C941A075F3FE4F3983EDB
:100C3000D4F3869577956795B795F7959F5FC9F734
:100C4000880F911D9695879597F90895E1E0660FB5
:100C5000771F881FBB1F621773078407BA0720F02E
:100C6000621B730B840BBA0BEE1F88F7E095089597
:100C70000E943F066894B1110C941A0708950E94CF
:100C8000FF0688F09F5798F0B92F9927B751B0F019
:100C9000E1F0660F771F881F991F1AF0BA95C9F700
:100CA00014C0B13091F00E941907B1E008950C947E
:100CB0001907672F782F8827B85F39F0B93FCCF331
:100CC000869577956795B395D9F73EF4909580957D
:100CD000709561957F4F8F4F9F4F0895E89409C09D
:100CE00097FB3EF490958095709561957F4F8F4F5F
:100CF0009F4F9923A9F0F92F96E9BB279395F69575
:100D0000879577956795B795F111F8CFFAF4BB0FF2
:100D100011F460FF1BC06F5F7F4F8F4F9F4F16C056
:100D2000882311F096E911C0772321F09EE8872FE0
:100D3000762F05C0662371F096E8862F70E060E09C
:100D40002AF09A95660F771F881FDAF7880F969515
:100D5000879597F90895990F0008550FAA0BE0E8B9
:100D6000FEEF16161706E807F907C0F0121613066D
:100D7000E407F50798F0621B730B840B950B39F4AD
:100D80000A2661F0232B242B252B21F408950A2613
:100D900009F4A140A6958FEF811D811D089597F953
:100DA0009F6780E870E060E008959FEF80EC089511
:100DB00000240A941616170618060906089500243A
:100DC0000A9412161306140605060895092E0394B4
:100DD000000C11F4882352F0BB0F40F4BF2B11F428
:100DE00060FF04C06F5F7F4F8F4F9F4F089557FD87
:100DF0009058440F551F59F05F3F71F04795880F89
:100E000097FB991F61F09F3F79F08795089512161F
:100E100013061406551FF2CF4695F1DF08C01616CB
:100E200017061806991FF1CF86957105610508947C
:100E30000895E894BB2766277727CB0197F9089593
:100E40000E94AB0608F48FEF08950E9438070C94B7
:100E5000E6060E94D80638F00E94DF0620F09523AF
:100E600011F00C94CF060C94D50611240C941A079B
:100E70000E94F70670F3959FC1F3950F50E0551F40
:100E8000629FF001729FBB27F00DB11D639FAA27DF
:100E9000F00DB11DAA1F649F6627B00DA11D661F2E
:100EA000829F2227B00DA11D621F739FB00DA11D4F
:100EB000621F839FA00D611D221F749F3327A00D09
:100EC000611D231F849F600D211D822F762F6A2FA5
:100ED00011249F5750409AF0F1F088234AF0EE0F0A
:100EE000FF1FBB1F661F771F881F91505040A9F737
:100EF0009E3F510580F00C94CF060C941A075F3F7B
:100F0000E4F3983ED4F3869577956795B795F79572
:100F1000E7959F5FC1F7FE2B880F911D96958795EA
:100F200097F908950E94AB06880B990B0895A1E2EA
:100F30001A2EAA1BBB1BFD010DC0AA1FBB1FEE1F53
:100F4000FF1FA217B307E407F50720F0A21BB30B9E
:100F5000E40BF50B661F771F881F991F1A9469F71A
:100F600060957095809590959B01AC01BD01CF0176
:100F70000895EE0FFF1F0590F491E02D0994F89469
:100F8000FFCF000000006F01CF00FC00BC012D016D
:100F90000B011F016E616E00696E66006F76660060
:040FA0000D0A000036
:107E0000112484B714BE81FFF0D085E080938100F7
:107E100082E08093C00088E18093C10086E0809377
:107E2000C20080E18093C4008EE0C9D0259A86E02C
:107E300020E33CEF91E0309385002093840096BBD3
:107E4000B09BFECF1D9AA8958150A9F7CC24DD24C4
:107E500088248394B5E0AB2EA1E19A2EF3E0BF2EE7
:107E6000A2D0813461F49FD0082FAFD0023811F036
:107E7000013811F484E001C083E08DD089C08234E0
:107E800011F484E103C0853419F485E0A6D080C0E4
:107E9000853579F488D0E82EFF2485D0082F10E0AE
:107EA000102F00270E291F29000F111F8ED06801E7
:107EB0006FC0863521F484E090D080E0DECF843638
:107EC00009F040C070D06FD0082F6DD080E0C81688
:107ED00080E7D80618F4F601B7BEE895C0E0D1E017
:107EE00062D089930C17E1F7F0E0CF16F0E7DF06D8
:107EF00018F0F601B7BEE89568D007B600FCFDCFD4
:107F0000A601A0E0B1E02C9130E011968C91119780
:107F100090E0982F8827822B932B1296FA010C0160
:107F200087BEE89511244E5F5F4FF1E0A038BF0790
:107F300051F7F601A7BEE89507B600FCFDCF97BE46
:107F4000E89526C08437B1F42ED02DD0F82E2BD052
:107F50003CD0F601EF2C8F010F5F1F4F84911BD097
:107F6000EA94F801C1F70894C11CD11CFA94CF0C13
:107F7000D11C0EC0853739F428D08EE10CD085E9AC
:107F80000AD08FE07ACF813511F488E018D01DD067
:107F900080E101D065CF982F8091C00085FFFCCF94
:107FA0009093C60008958091C00087FFFCCF809118
:107FB000C00084FD01C0A8958091C6000895E0E648
:107FC000F0E098E1908380830895EDDF803219F02E
:107FD00088E0F5DFFFCF84E1DECF1F93182FE3DFCA
:107FE0001150E9F7F2DF1F91089580E0E8DFEE27F6
:047FF000FF270994CA
:027FFE00040479
:00000001FF
